:020000040800F2
:10000000003A0120ED010008590200082B1D0008EC
:1000100059020008590200085902000800000000B7
:100020000000000000000000000000002927000878
:100030005902000800000000C12800081929000822
:100040005902000859020008590200085902000824
:100050005902000859020008590200085902000814
:100060005902000859020008590200085902000804
:1000700059020008590200085902000859020008F4
:1000800059020008590200085902000859020008E4
:1000900059020008590200085902000859020008D4
:1000A00059020008590200085902000859020008C4
:1000B00059020008590200085902000859020008B4
:1000C00059020008590200085902000859020008A4
:1000D0005902000859020008590200085902000894
:1000E0005902000859020008590200085902000884
:1000F0005902000859020008590200085902000874
:100100005902000859020008590200085902000863
:100110005902000859020008590200085902000853
:100120005902000859020008590200085902000843
:100130005902000859020008590200085902000833
:100140005902000859020008590200085902000823
:100150005902000859020008590200085902000813
:100160005902000859020008590200085902000803
:1001700059020008590200085902000859020008F3
:10018000590200085902000880B582B000AF7860BB
:10019000144B1B785A1CD1B2124A11707A68D1B232
:1001A000114AD1540F4B1B780F4A0021D1540D4BEB
:1001B0001B7801330F2B05D87B680A2B02D07B6894
:1001C000002B0CD1074B00221A70074B0420194654
:1001D000002201F09FFD0346002B00D000BF08372E
:1001E000BD4680BD600400205004002080B582B070
:1001F00000AF134B7B60134B3B6007E03B681A1D5D
:100200003A607A68111D796012681A603A680E4B7C
:100210009A42F3D30D480E494FF000028842B8BF0E
:1002200040F8042BFFF6FAAFDFF82800016841F42C
:100230007001016000F014F80837BD4680BD00BFB2
:10024000E82D000800000020500400205004002089
:100250000032012088ED00E080B400AFFEE700BF6F
:1002600080B584B004AF0820012100F08DF802238E
:100270000093002301930023029300230393074874
:100280000749F022002300F07FFE064800F024FE1C
:1002900000F02EFF044800F01FFEFBE7AD0200084F
:1002A000842D00088C2D00089C2D000880B584B09A
:1002B00000AF786007F10803184601F0F9FC4FF42D
:1002C0008053BB6001233B7300237B730023BB730C
:1002D0000023FB7307F108032548194601F05AFC77
:1002E0004FF40043BB6007F108032148194601F0B1
:1002F00051FC204B00221A6004E01E4B1B685A1C64
:100300001C4B1A601B4B1A681B4B9A42F5DD1B4BAA
:100310001B68002B0CBF00230123DBB214484FF4F1
:1003200080511A4601F0DEFC144B1B68002B14BFF1
:1003300000230123DBB21A46104B1A600F4B1B68D7
:10034000002B0CBF00230123DBB209484FF400410E
:100350001A4601F0C7FC0A4B1B685A1C084B1A606E
:10036000074B1B680748194600F0B6FDC1E700BF00
:10037000000C0240640400203F420F00680400208B
:100380006C040020A42D000880B483B000AF786016
:100390000B46FB70FB78002B06D0094B084A116B0B
:1003A0007A680A431A6306E0054B054A116B7A68BE
:1003B000D2430A401A630C37BD465DF8047B704790
:1003C0000038024080B586B004AF00237B6000F0A7
:1003D00051FA0F4B1B68002B0FD002230093002310
:1003E000019300230293002303930A480A494FF420
:1003F0008272002300F0C8FD78607B68002B02D178
:1004000002F050FAFEE77B6818460837BD4680BD0B
:10041000A004002019050008AC2D000880B588B0A4
:1004200000AFF860B9607A603B600023FB611D4B50
:100430001B68002B30D0BB683B617B687B61FB682D
:10044000BB61BB68052B1CDC01F0E6FA0346022BFE
:100450000BD1144B1A6807F1100310461946BA6AFB
:10046000002301F0BBFDF86116E00E4B1A6807F19E
:100470001003104619460022002301F0AFFDF86179
:100480000AE0084B1A6807F11003104619463A684B
:10049000002301F063FEF861FB6918462037BD4672
:1004A00080BD00BFA004002080B586B002AF786098
:1004B0003960184B1B68DB68DB68FB60FB68043342
:1004C000184601F0C7FCFB68DB69012B1BD1FB68F8
:1004D0009A697B681344F86819463A687B6800F0AB
:1004E000A7F80346012B0ED100230093F8680021E2
:1004F0007A680023FFF792FFB860BB68002B02D137
:1005000002F0D0F9FEE7FB685B6AF868984710379D
:10051000BD4680BD9804002080B584B000AF7860EF
:1005200007F10803184600F03FF8F860BB68F86868
:10053000194600F003F800F0BDF8F1E780B584B08B
:1005400000AF7860396000F00BFE07F10803184631
:1005500000F04EF8F860BB68002B1ED13B68002B02
:100560000AD17A68FB689A4206D800F007FE7868DC
:10057000F968FFF799FF12E00A4B1A687968FB687F
:10058000CB1A1046194602F061F800F0F7FD034659
:10059000002B04D102F04EF901E000F0EFFD10371E
:1005A000BD4680BDA004002080B485B000AF786057
:1005B0000E4B1B681B68002B14BF00230123DBB20A
:1005C0001A467B681A607B681B68002B05D1074BB5
:1005D0001B68DB681B68FB6001E00023FB60FB68B5
:1005E00018461437BD465DF8047B70479804002018
:1005F00080B584B000AF786000F046FEF8600B4B29
:100600001B68FA689A4205D200F0DCF87B68012288
:100610001A6002E07B6800221A60044BFA681A60D4
:10062000FB6818461037BD4680BD00BFA4040020FB
:1006300080B586B000AFF860B9607A603B60002397
:100640007B61FB68BA685A60FB68FA681A61BA682D
:100650007B689A4212D87A683B68D21AFB689B6919
:100660009A4202D301237B611BE0104B1A68FB689E
:1006700004331046194601F0B5FB12E07A683B6876
:100680009A4206D2BA683B689A4202D301237B6140
:1006900007E0074B1A68FB6804331046194601F05F
:1006A000A1FB7B6918461837BD4680BD9C0400201D
:1006B0009804002080B58AB002AF70E0BB68002BC0
:1006C0006DDB3B69FB61FB695B69002B04D0FB6957
:1006D0000433184601F0BEFB3B1D1846FFF788FFA8
:1006E000B861BB68092B59D801A252F823F000BFAA
:1006F0001907000819070008190700089D070008D6
:100700006B0700089507000819070008190700087B
:100710009D0700086B070008FA68FB699B691A448B
:10072000FB68F8691146BA69FFF782FF0346012B9F
:100730001AD1FB695B6AF8699847FB69DB69012B91
:1007400012D1FA68FB699B69134400220092F86990
:1007500000211A460023FFF761FE78617B69002BB8
:1007600002D102F09FF8FEE719E0FA68FB699A618E
:10077000FB699B69002B02D102F094F8FEE7FB694C
:100780009A69BB691344F8691946BA69BB69FFF7EE
:100790004FFF04E0F86902F0B1F900E000BF084B38
:1007A0001A6807F10803104619460022002301F0D9
:1007B0003FFD0346002B81D12037BD4680BD00BFE1
:1007C000A004002080B588B002AF3DE0274B1B6835
:1007D000DB681B687B61254B1B68DB68DB683B6162
:1007E0003B690433184601F035FB3B695B6A3869A5
:1007F00098473B69DB69012B26D13B699A697B6984
:100800001344FB60FA687B699A420ED93B69FA6827
:100810005A603B693A691A61144B1A683B690433A0
:100820001046194601F0DEFA0EE000230093386905
:1008300000217A690023FFF7F1FDB860BB68002B47
:1008400002D102F02FF8FEE7084B1B681B68002B53
:10085000BCD1064B1B687B60054B1A68034B1A60C2
:10086000034B7A681A601837BD4680BD9804002093
:100870009C04002080B500AF01F0ECFF154B1B6815
:10088000002B24D1144801F05DFA144801F05AFA03
:10089000134B114A1A60134B104A1A600A200C219C
:1008A000002201F059FB02460A4B1A60094B1B68F3
:1008B000002B02D101F0F6FFFEE7064B1B68002B70
:1008C00005D0044B1B681846074901F097FE01F05C
:1008D000D1FF80BDA004002070040020840400200B
:1008E000980400209C040020B42D000880B582B03C
:1008F00000AF0346FB71FB791846FFF745FC08374C
:10090000BD4680BD80B483B000AF78600B46FB70FD
:100910007B68FA781A70012318460C37BD465DF8DB
:10092000047B704780B485B000AF786039600023E5
:10093000FB600AE07B685A1C7A603A68511C396097
:1009400012781A70FB680133FB603B681B78002B40
:10095000F0D1FB6818461437BD465DF8047B70473C
:1009600080B586B000AFF8607A603B600B46FB72E2
:1009700000237B617B68013B7B603B68092B10D9BE
:100980003A681E4BA3FB0213DB08FA7AF86811469B
:100990007A68FFF7E5FF78617B69FA681344FB60CA
:1009A00011E00DE0FB7AF8681946FFF7ABFFFB6832
:1009B0000133FB607B6901337B617B68013B7B60BA
:1009C0007B68002BEEDC39680C4BA3FB0123DA08B3
:1009D00013469B0013445B00CA1AD3B23033DBB218
:1009E000F8681946FFF78EFF03467A6913447B6166
:1009F0007B6918461837BD4680BD00BFCDCCCCCC36
:100A000080B586B000AFF8607A603B600B46FB7241
:100A100000237B613B68002B03DA3B685B423B6150
:100A200001E03B683B617B68013B7B603B69092BD4
:100A300021D93B68002B0DDA3A692F4BA3FB021337
:100A4000DB085B42FA7AF86811467A68FFF7D8FF4C
:100A500078610BE03A69284BA3FB0213DB08FA7AB2
:100A6000F86811467A68FFF7CBFF78617B69FA680E
:100A70001344FB6026E03B68002B03DA7B68013BF4
:100A80007B600EE00DE0FB7AF8681946FFF73AFF4D
:100A9000FB680133FB607B6901337B617B68013B51
:100AA0007B607B68002BEEDC3B68002B0ADAF86881
:100AB0002D21FFF727FF03467A6913447B61FB680A
:100AC0000133FB6039690C4BA3FB0123DA081346A1
:100AD0009B0013445B00CA1AD3B23033DBB2F86810
:100AE0001946FFF70FFF03467A6913447B617B6960
:100AF00018461837BD4680BDCDCCCCCC80B588B06B
:100B000002AFF8607A600A46FA72BB7200237B611A
:100B10007B68013B7B603B6A1B09002B12D03B6A60
:100B20001909FA7ABB7A0091F86811467A68FFF7DA
:100B3000E5FF03467A6913447B617B69FA681344D5
:100B4000FB6011E00DE0FB7AF8681946FFF7DAFE6A
:100B5000FB680133FB607B6901337B617B68013B90
:100B60007B607B68002BEEDC3B6A03F00F03092BF4
:100B70000BD83B6ADBB203F00F03DBB23033DBB2DE
:100B8000F8681946FFF7BEFE19E0BB7A002B0BD0C0
:100B90003B6ADBB203F00F03DBB23733DBB2F8683A
:100BA0001946FFF7AFFE0AE03B6ADBB203F00F0322
:100BB000DBB25733DBB2F8681946FFF7A3FE7B6957
:100BC00001337B617B6918461837BD4680BD00BF85
:100BD00080B58AB002AFF860B9607A603B600023EC
:100BE000BB6100237B61FB68002B03D0FB68002204
:100BF0001A70F8E0F7E07B681B78252B0BD0FB68B8
:100C00005A1CFA607A68511C796012781A707B69F4
:100C100001337B61E7E07B6801331B78252B0BD127
:100C2000FB685A1CFA6025221A707B6802337B60CD
:100C30007B6901337B61D6E02023FB770023BB7700
:100C40007B6801337B607B681B78302B05D13023B8
:100C5000FB777B6801337B600FE00EE0BB7F1A46B9
:100C6000920013445B00DAB27B681B781344DBB25A
:100C7000303BBB777B6801337B607B681B782F2B15
:100C800003D97B681B78392BE8D9BA7F7B69134479
:100C90001A46BB689A4205D9BB68DAB27B69DBB2F7
:100CA000D31ABB777B681B78583B202B00F28D80D2
:100CB00001A252F823F000BF850D0008CB0D0008FB
:100CC000CB0D0008CB0D0008CB0D0008CB0D0008A4
:100CD000CB0D0008CB0D0008CB0D0008CB0D000894
:100CE000CB0D0008B50D00083D0D0008CB0D000828
:100CF000CB0D0008CB0D0008CB0D00083D0D000802
:100D0000CB0D0008CB0D0008CB0D0008CB0D000863
:100D1000CB0D0008CB0D0008CB0D0008CB0D000853
:100D2000CB0D0008A10D0008CB0D0008530D0008E5
:100D3000CB0D0008CB0D0008690D0008BA7F3B6899
:100D4000191D39601B68F97FF868FFF759FEB86113
:100D50003EE0BA7F3B68191D39601B68F97FF8686F
:100D6000FFF7FEFDB86133E0BA7F3B68191D3960BB
:100D70001968FB7F0091F86819460023FFF7BEFE53
:100D8000B86125E0BA7F3B68191D39601968FB7F9F
:100D90000091F86819460123FFF7B0FEB86117E02B
:100DA0003B681A1D3A601B68F8681946FFF7BAFDE0
:100DB000B8610DE03B681A1D3A601B68DBB2F86849
:100DC0001946FFF79FFDB86102E04FF0FF3325E0C1
:100DD0007B6801337B60BB69FA681344FB607A6906
:100DE000BB6913447B617B681B78002B04D07A6954
:100DF000BB689A42FFF4FFAE7A69BB689A4203D29D
:100E0000FB6800221A7008E0FB68013BFB60FB688E
:100E100000221A707B69013B7B617B691846203791
:100E2000BD4680BD80B584B000AFF860B9607A601F
:100E3000F8686421BA687B68FFF7CAFE0346184663
:100E40001037BD4680BD00BFB0B5A6B000AFF8609A
:100E5000B9607A60144B07F110041D460FCD0FC422
:100E60000FCD0FC42B68236007F134031846B9680F
:100E70007A68FFF7D7FF0346632B09DD0B4B1B682E
:100E8000DB6807F110021046194600F059F8FEE73A
:100E900007F134031846F96800F052F80346184683
:100EA0009837BD46B0BD00BFBC2D00082804002007
:100EB00080B582B000AF78603960064B1B689B68D4
:100EC000184679683A68FFF7BFFF034618460837A7
:100ED000BD4680BD280400200FB480B582B000AFAD
:100EE00007F114033B6038693968FFF7E1FF786068
:100EF0007B6818460837BD46BDE8804004B070479F
:100F000080B582B000AF786039600C4B1B689A687E
:100F10003B689A4205D0094B1B68DA683B689A42E5
:100F200006D17B68DBB21846FFF7E0FC7B6801E086
:100F30004FF0FF3318460837BD4680BD2804002017
:100F400080B584B000AF786039600023FB6012E0A8
:100F50007B681B7818463968FFF7D2FF0346B3F168
:100F6000FF3F02D14FF0FF330AE0FB680133FB6023
:100F70007B6801337B607B681B78002BE8D1FB68C2
:100F800018461037BD4680BD80B58AB002AFF86004
:100F9000B9603B601346FB80FB68002B02D101F077
:100FA00081FCFEE7BB6A042B02D901F07BFCFEE763
:100FB000FB881846396B00F0B9FCB861BB69002B9F
:100FC00072D0BB691A6BFB8803F18043013B9B0025
:100FD00013447B617B6923F007037B617B6903F02A
:100FE0000703002B02D001F05DFCFEE7FB880093B5
:100FF000B869B968BA6A7B6B00F0A2FB7869F968D6
:101000003A6801F04FFB0246BB691A60FB6A002B8D
:1010100002D0FB6ABA691A6001F01CFC2E4B1B68F7
:101020005A1C2D4B1A602D4B1B68002B09D12B4BE2
:10103000BA691A60284B1B68012B0FD100F0C8FB5E
:101040000CE0274B1B68002B08D1244B1B68DA6A85
:10105000BB6A9A4202D8214BBA691A60214B1B68BD
:101060005A1C204B1A601F4B1A68BB691A64BB6973
:10107000DA6A1D4B1B689A4203D9BB69DA6A1A4BBC
:101080001A60BB69DA6A13469B0013449B00174A37
:101090001A44BB6904331046194600F07FFE012351
:1010A000FB6101F0E7FB02E04FF0FF33FB61FB69FE
:1010B000012B0BD10A4B1B68002B07D0074B1B6879
:1010C000DA6ABB6A9A4201D201F0B4FBFB691846A6
:1010D0002037BD4680BD00BF80050020A804002049
:1010E0008C0500209C05002088050020AC04002011
:1010F00080B586B004AF0023009300230193002342
:101100000293002303931248124982220023FFF71F
:101110003BFF78607B68012B02D1FFF753F97860C1
:101120007B68012B0AD101F0BDFB0B4B01221A6039
:101130000A4B00221A6001F015FB05E07B68002BCA
:1011400002D101F0AFFBFEE70837BD4680BD00BF0E
:1011500021170008E02D00088C05002084050020E0
:1011600080B400AF044B1B685A1C034B1A60BD4689
:101170005DF8047B704700BFA005002080B582B0F9
:1011800000AF00237B60384B1B68002B02D101F0BD
:1011900089FBFEE701F05EFB334B1B685A1E324BA6
:1011A0001A60314B1B68002B56D1304B1B68002B4B
:1011B00052D02FE02E4BDB68DB683B603B68183376
:1011C000184600F047FE3B680433184600F042FE24
:1011D0003B68DA6A274B1B689A4203D93B68DA6A94
:1011E000244B1A603B68DA6A13469B0013449B0049
:1011F000214A1A443B6804331046194600F0CEFDDC
:101200003B68DA6A1D4B1B68DB6A9A4202D31C4BAF
:1012100001221A60164B1B68002BCBD1194B1B689F
:10122000002B11D00CE000F041F80346002B02D057
:10123000134B01221A60134B1B685A1E114B1A6084
:10124000104B1B68002BEED10D4B1B68012B03D1FB
:1012500001237B6001F0EEFA01F00CFB7B6818467D
:101260000837BD4680BD00BFA005002080050020D6
:101270004005002088050020AC040020A8040020C0
:10128000940500209005002080B582B000AF01F0E9
:10129000E1FA054B1B687B6001F0ECFA7B681846AD
:1012A0000837BD4680BD00BF8405002080B586B0EC
:1012B00000AF00237B614E4B1B68002B40F0878002
:1012C0004C4B1B685A1C4B4B1A604A4B1B683B61CA
:1012D0003B69002B18D1484B1B681B68002B02D0C0
:1012E00001F0E0FAFEE7444B1B68FB60434B1A68D1
:1012F000414B1A60414BFA681A60414B1B685A1CFB
:101300003F4B1A6000F054FB3E4B1B683A699A420F
:101310004ED3394B1B681B68002B01D1012300E021
:101320000023002B04D0374B4FF0FF321A603FE010
:10133000314B1B68DB68DB68BB60BB685B687B604C
:101340003A697B689A4203D22E4B7A681A602FE082
:10135000BB680433184600F07DFDBB689B6A002B18
:1013600004D0BB681833184600F074FDBB68DA6A15
:10137000254B1B689A4203D9BB68DA6A224B1A6074
:10138000BB68DA6A13469B0013449B001F4A1A4449
:10139000BB6804331046194600F000FDBB68DA6AEA
:1013A0001B4B1B68DB6A9A4201D301237B61B0E7C8
:1013B000174B1B68DA6A154913469B0013449B00C0
:1013C0000B441B68012B07D901237B6104E0114BFF
:1013D0001B685A1C0F4B1A600F4B1B68002B01D067
:1013E00001237B617B6918461837BD4680BD00BF6D
:1013F000A005002084050020380500203C050020C1
:10140000980500203004002088050020AC0400204E
:10141000A8040020900500209405002080B582B02B
:1014200000AF224B1B68002B03D0214B01221A6016
:1014300038E01F4B00221A600BE01E4B1B68002B8C
:1014400002D101F02FFAFEE71A4B1B685A1E194B06
:101450001A60184B1A68184913469B0013449B00E6
:101460000B441B68002BE8D0124B1A6813469B00F4
:1014700013449B00104A13447B607B685B685A6886
:101480007B685A607B685A687B6808339A4204D14B
:101490007B685B685A687B685A607B685B68DA685F
:1014A000064B1A600837BD4680BD00BFA00500206E
:1014B0009405002088050020AC040020A80400202A
:1014C00080B584B000AF786039607B68002B02D1B2
:1014D00001F0E8F9FEE7124B1B68183378681946EB
:1014E00000F080FC0E4B1B680433184600F0B2FC81
:1014F0003B68B3F1FF3F07D1094B1B680433094830
:10150000194600F04BFC07E0074B1A683B68134490
:10151000FB60F86800F0D4F91037BD4680BD00BF0D
:10152000A80400206C0500208405002080B584B04C
:1015300000AF786039607B68002B02D101F0B2F90E
:10154000FEE70C4B1B6818337868194600F026FC40
:10155000084B1B680433184600F07CFC064B1A68E5
:101560003B681344FB60F86800F0AAF91037BD46E9
:1015700080BD00BFA80400208405002080B584B091
:1015800000AF78607B68DB68DB68BB60BB68002B02
:1015900002D101F087F9FEE7BB681833184600F066
:1015A00059FC1E4B1B68002B1DD1BB680433184629
:1015B00000F050FCBB68DA6A194B1B689A4203D9E9
:1015C000BB68DA6A164B1A60BB68DA6A13469B007E
:1015D00013449B00134A1A44BB680433104619464F
:1015E00000F0DCFB05E0BB6818330F48194600F03B
:1015F000D5FBBB68DA6A0D4B1B68DB6A9A4205D9DA
:101600000123FB600A4B01221A6001E00023FB600A
:10161000FB6818461037BD4680BD00BFA0050020FE
:1016200088050020AC04002040050020A80400200C
:101630009405002080B582B000AF78607B68002BF5
:1016400002D101F02FF9FEE7054B1A687B681A609A
:10165000044B1A687B685A600837BD4680BD00BFDE
:10166000980500208405002080B584B000AF786024
:1016700039607B68002B02D101F014F9FEE73B686A
:10168000002B02D101F00EF9FEE701F0E3F81C4B4C
:101690001B68BB603B681B68B3F1FF3F02D10023AE
:1016A000FB6026E07B681A68164B1B689A4207D0DD
:1016B0007B685A68BB689A4202D80123FB6018E035
:1016C0007B685B68BA68D21A3B681B689A420ED284
:1016D0003B681A687B685968BB68CB1A1A443B6838
:1016E0001A607868FFF7A6FF0023FB6001E0012382
:1016F000FB6001F0BFF8FB6818461037BD4680BD9F
:10170000840500209805002080B400AF034B01221F
:101710001A60BD465DF8047B704700BF9405002049
:1017200080B582B000AF786000F090F8034B1B6882
:10173000012B01D901F07EF8F6E700BFAC040020D0
:1017400080B586B000AFF860B9607A603B60002376
:101750007B6112E0BA687B6913441A78F9687B6987
:101760000B4430331A71BA687B6913441B78002B21
:1017700000D105E07B6901337B617B69092BE9D9E5
:10178000FB68002283F83D207B68042B01D90423E9
:101790007B60FB687A68DA62FB687A689A64FB6847
:1017A0000433184600F0EEFAFB681833184600F0D0
:1017B000E9FAFB68FA681A617B68C3F10502FB6805
:1017C0009A61FB68FA685A621837BD4680BD00BF4F
:1017D00080B582B000AF00237B600CE07A681346CE
:1017E0009B0013449B00114A1344184600F0AAFAC8
:1017F0007B6801337B607B68042BEFD90C4800F0D9
:10180000A1FA0C4800F09EFA0B4800F09BFA0B4836
:1018100000F098FA0A4800F095FA0A4B044A1A6058
:10182000094B044A1A600837BD4680BDAC0400204D
:10183000100500202405002040050020540500204C
:101840006C050020380500203C05002080B582B0E2
:1018500000AF28E0FFF784FC164B1B68002B14BF79
:1018600000230123DBB27B60FFF788FC7B68002B41
:1018700019D100F0EFFF0F4BDB68DB683B603B6882
:101880000433184600F0E6FA0B4B1B685A1E0A4B4D
:101890001A600A4B1B685A1E084B1A6000F0EAFFD8
:1018A000386800F075F8054B1B68002BD2D108375B
:1018B000BD4680BD5405002080050020680500203D
:1018C00080B582B000AF7860134B1B687A685A60AD
:1018D000124B1B687A689A4209D2114B1A680E4B58
:1018E0001B6804331046194600F07CFA10E00D4BDB
:1018F0001A68094B1B6804331046194600F072FA47
:10190000094B1B687A689A4202D2074B7A681A60C0
:101910000837BD4680BD00BFA80400208405002014
:101920003C050020380500203004002080B584B03C
:1019300000AF03463960FB804C2001F051F8F8609D
:10194000FB68002B1FD03B68002B06D1FB889B0057
:10195000184601F045F8034600E03B68FA68136357
:10196000FB681B6B002B05D1F86801F0C7F800235A
:10197000FB6008E0FB681A6BFB889B001046A52102
:101980001A4601F0B5F9FB6818461037BD4680BD10
:1019900080B582B000AF78607B681B6B184601F0A1
:1019A000ADF8786801F0AAF80837BD4680BD00BFE1
:1019B00080B483B000AF0E4B1B681B68002B01D1B5
:1019C000012300E00023002B04D00A4B4FF0FF322C
:1019D0001A6008E0064B1B68DB68DB687B607B688D
:1019E0005A68044B1A600C37BD465DF8047B70479B
:1019F000380500203004002080B483B000AF054BD0
:101A00001B687B607B6818460C37BD465DF8047B1D
:101A1000704700BFA804002080B483B000AF0B4B18
:101A20001B68002B02D101237B6008E0084B1B6878
:101A3000002B02D102237B6001E000237B607B68E6
:101A400018460C37BD465DF8047B70478C050020B6
:101A5000A005002080B584B000AF78607B68FB6093
:101A60007B68002B4AD0FB68DA6A264B1B68DB6A6E
:101A70009A4243D2FB689B69002B06DB214B1B6813
:101A8000DB6AC3F10502FB689A61FB685969FB6870
:101A9000DA6A13469B0013449B001B4A1344994285
:101AA00001D1012300E00023002B22D0FB68043386
:101AB000184600F0CFF9134B1B68DA6AFB68DA624C
:101AC000FB68DA6A114B1B689A4203D9FB68DA6A31
:101AD0000E4B1A60FB68DA6A13469B0013449B00A6
:101AE000094A1A44FB6804331046194600F056F9B7
:101AF00004E0044B1B68DA6AFB68DA621037BD4603
:101B000080BD00BFA8040020AC0400208805002090
:101B100080B584B000AF78607B68FB607B68002B89
:101B200030D0FB68DA6AFB689B6C9A422AD0FB686B
:101B30000433184600F08EF9FB689A6CFB68DA6291
:101B4000FB689B69002B05DBFB68DB6AC3F10502C0
:101B5000FB689A61FB68DA6A0C4B1B689A4203D9EE
:101B6000FB68DA6A094B1A60FB68DA6A13469B0065
:101B700013449B00064A1A44FB6804331046194676
:101B800000F00CF91037BD4680BD00BF880500206D
:101B9000AC04002080B487B000AF786039600023C7
:101BA0007B6100233B610023FB6000237B6176E0C7
:101BB0007B69012202FA03F33B613B681A683B69C7
:101BC0001340FB60FA683B699A4265D17B681A68EA
:101BD0007B695B00032101FA03F3DB431A407B6856
:101BE0001A607B681A683B681B7919467B695B0041
:101BF00001FA03F31A437B681A603B681B79012BD7
:101C000003D03B681B79022B2ED17B689A687B69D5
:101C10005B00032101FA03F3DB431A407B689A60FF
:101C20007B689A683B685B7919467B695B0001FABF
:101C300003F31A437B689A607B685A687B699BB29E
:101C4000012101FA03F3DB431A407B685A607B6889
:101C50005A683B689B7919467B699BB201FA03F38A
:101C60009BB21A437B685A607B68DA687B699BB2D7
:101C70005B00032101FA03F3DB431A407B68DA605F
:101C80007B68DA683B68DB7919467B695B0001FA9F
:101C900003F31A437B68DA607B6901337B617B69FC
:101CA0000F2B85D91C37BD465DF8047B704700BFFC
:101CB00080B483B000AF78607B684FF6FF721A6023
:101CC0007B6800221A717B6800225A717B680022AF
:101CD0009A717B680022DA710C37BD465DF8047B8F
:101CE000704700BF80B483B000AF786013460A46E7
:101CF0007A807B707B78002B03D07B687A881A838C
:101D000002E07B687A885A830C37BD465DF8047B15
:101D1000704700BFABBE00F002B800207047002A39
:101D200000F0018010600120704706980188044A85
:101D3000914240F00380043006907047FEE70000B7
:101D4000ABBE000080B483B000AF78607B6803F165
:101D500008027B685A607B684FF0FF329A607B68AC
:101D600003F108027B68DA607B6803F108027B6894
:101D70001A617B6800221A600C37BD465DF8047B4F
:101D8000704700BF80B483B000AF78607B680022EA
:101D90001A610C37BD465DF8047B704780B485B08E
:101DA00000AF786039607B685B68FB603B68FA680D
:101DB0005A60FB689A683B689A60FB689B683A685F
:101DC0005A60FB683A689A603B687A681A617B6877
:101DD0001B685A1C7B681A601437BD465DF8047B8B
:101DE000704700BF80B485B000AF786039603B6851
:101DF0001B68BB60BB68B3F1FF3F03D17B681B6905
:101E0000FB600CE07B680833FB6002E0FB685B680A
:101E1000FB60FB685B681A68BB689A42F6D9FB688E
:101E20005A683B685A603B685B683A689A603B68EE
:101E3000FA689A60FB683A685A603B687A681A6187
:101E40007B681B685A1C7B681A601437BD465DF8B6
:101E5000047B704780B485B000AF78607B681B69F5
:101E6000FB607B685B687A6892689A607B689B68B5
:101E70007A6852685A60FB685A687B689A4203D154
:101E80007B689A68FB685A607B6800221A61FB686D
:101E90001B685A1EFB681A60FB681B6818461437DB
:101EA000BD465DF8047B704780B584B000AF7860B4
:101EB00039607B68FB60FB68002B02D100F0F2FC0C
:101EC000FEE700F0C7FCFB681A68FB68DB6BF9688B
:101ED000096C01FB03F31A44FB685A60FB6800229B
:101EE0009A63FB681A68FB689A60FB681A68FB686B
:101EF000DB6B013BF968096C01FB03F31A44FB68D7
:101F0000DA60FB684FF0FF325A64FB684FF0FF3233
:101F10009A643B68002B0ED1FB681B69002B14D020
:101F2000FB6810331846FFF729FB0346012B0CD141
:101F300000F080FC09E0FB6810331846FFF702FF51
:101F4000FB6824331846FFF7FDFE00F093FC0123E5
:101F500018461037BD4680BD80B588B000AFF86028
:101F6000B9601346FB710023FB61FB68002B2AD08C
:101F7000542000F035FDB861BB69002B23D0FB680D
:101F8000BA6802FB03F301337B61786900F028FD36
:101F90000246BB691A60BB691B68002B10D0BB6985
:101FA000FA68DA63BB69BA681A64B8690121FFF795
:101FB0007BFFBB69FA7983F85020BB69FB6102E0C3
:101FC000B86900F09BFDFB69002B02D100F06AFCB0
:101FD000FEE7FB6918462037BD4680BD80B588B056
:101FE00000AFF860B9607A603B600023FB61FB687A
:101FF000BB61BB69002B02D100F054FCFEE7BB685B
:10200000002B03D1BB691B6C002B01D1012300E025
:102010000023002B02D100F045FCFEE73B68022BB9
:1020200003D1BB69DB6B012B01D1012300E000234D
:10203000002B02D100F036FCFEE7FFF7EDFC034673
:10204000002B02D17B68002B01D1012300E000238B
:10205000002B02D100F026FCFEE700F0FBFBBB6981
:102060009A6BBB69DB6B9A4202D33B68022B16D199
:10207000B869B9683A6800F0B9F9BB695B6A002BC6
:1020800009D0BB6924331846FFF778FA0346012BC1
:1020900001D100F0CFFB00F0EDFB012359E07B689C
:1020A000002B03D100F0E6FB002352E0FB69002B7C
:1020B00006D107F110031846FFF7BCFA0123FB61B4
:1020C00000F0D8FBFFF74CF800F0C4FBBB695B6C79
:1020D000B3F1FF3F02D1BB6900225A64BB699B6C1C
:1020E000B3F1FF3F02D1BB6900229A6400F0C2FB4A
:1020F00007F110023B1D10461946FFF7B5FA0346DB
:10210000002B1ED1B86900F061FA0346002B12D0F3
:10211000BB6903F110027B6810461946FFF7D0F93E
:10212000B86900F0F1F9FFF729F80346002B0FD149
:1021300000F080FB0CE0B86900F0E6F9FFF71EF84C
:102140008BE7B86900F0E0F9FFF718F8002300E02A
:1021500083E718462037BD4680BD00BF80B588B0F4
:1021600000AFF860B9607A603B60FB68BB61BB6937
:10217000002B02D100F096FBFEE7BB68002B03D1D9
:10218000BB691B6C002B01D1012300E00023002B55
:1021900002D100F087FBFEE73B68022B03D1BB694D
:1021A000DB6B012B01D1012300E00023002B02D1C6
:1021B00000F078FBFEE700F0E7FB00F073FB7861CE
:1021C000BB699A6BBB69DB6B9A4202D33B68022BFB
:1021D00024D1B869B9683A6800F008F9BB699B6C0A
:1021E000B3F1FF3F12D1BB695B6A002B13D0BB690F
:1021F00024331846FFF7C2F90346002B0BD07B6847
:10220000002B08D07B6801221A6004E0BB699B6C3C
:102210005A1CBB699A640123FB6101E00023FB6146
:10222000786900F049FBFB6918462037BD4680BD40
:1022300080B58AB000AFF860B9607A603B60002377
:102240007B62FB683B623B6A002B02D100F02AFBF9
:10225000FEE7BB68002B03D13B6A1B6C002B01D14E
:10226000012300E00023002B02D100F01BFBFEE75E
:10227000FFF7D2FB0346002B02D17B68002B01D174
:10228000012300E00023002B02D100F00BFBFEE74E
:1022900000F0E0FA3B6A9B6B002B3BD03B6ADB68AB
:1022A000FB61386AB96800F009F93B68002B1CD162
:1022B0003B6A9B6B5A1E3B6A9A633B6A1B68002B06
:1022C00004D1FFF799FB02463B6A5A603B6A1B69DF
:1022D000002B1BD03B6A10331846FFF74FF903461B
:1022E000012B13D100F0A6FA10E03B6AFA69DA601C
:1022F0003B6A5B6A002B09D03B6A24331846FFF720
:102300003DF90346002B01D000F094FA00F0B2FA38
:10231000012366E07B68002B03D100F0ABFA0023B9
:102320005FE07B6A002B06D107F114031846FFF724
:1023300081F901237B6200F09DFAFEF711FF00F0A6
:1023400089FA3B6A5B6CB3F1FF3F02D13B6A002222
:102350005A643B6A9B6CB3F1FF3F02D13B6A002297
:102360009A6400F087FA07F114023B1D10461946E3
:10237000FFF77AF90346002B2BD1386A00F010F9E9
:102380000346002B1FD03B6A1B68002B08D100F0CE
:1023900061FA3B6A5B681846FFF75CFB00F06AFA7B
:1023A0003B6A03F124027B6810461946FFF788F860
:1023B000386A00F0A9F8FEF7E1FE0346002B0FD1C2
:1023C00000F038FA0CE0386A00F09EF8FEF7D6FE0E
:1023D0005EE7386A00F098F8FEF7D0FE002300E0D0
:1023E00056E718462837BD4680BD00BF80B584B08B
:1023F00000AFF860B9607A60FB681B6C002B0CD1F1
:10240000FB681B68002B51D1FB685B681846FFF71F
:102410007FFBFB6800225A6048E07B68002B1AD1E2
:10242000FB689A68FB681B6C1046B9681A4600F096
:10243000C5FBFB689A68FB681B6C1A44FB689A60D2
:10244000FB689A68FB685B689A422FD3FB681A683E
:10245000FB689A602AE0FB68DA68FB681B6C104630
:10246000B9681A4600F0AAFBFB68DA68FB681B6CC7
:102470005B421A44FB68DA60FB68DA68FB681B6839
:102480009A4207D2FB685A68FB681B6C5B421A448D
:10249000FB68DA607B68022B08D1FB689B6B002B22
:1024A00004D0FB689B6B5A1EFB689A63FB689B6BAE
:1024B0005A1CFB689A631037BD4680BD80B582B058
:1024C00000AF786039607B681B68002B19D07B688F
:1024D000DA687B681B6C1A447B68DA607B68DA68B0
:1024E0007B685B689A4203D37B681A687B68DA6012
:1024F0007B68DA687B681B6C386811461A4600F006
:102500005DFB0837BD4680BD80B582B000AF786006
:1025100000F0A0F914E07B685B6A002B0AD07B68AE
:1025200024331846FFF72AF80346002B03D0FFF7A1
:10253000EBF800E008E07B689B6C5A1E7B689A64AD
:102540007B689B6C002BE6DC7B684FF0FF329A6463
:1025500000F090F900F07EF914E07B681B69002B15
:102560000FD07B6810331846FFF708F80346002B9E
:1025700001D0FFF7C9F87B685B6C5A1E7B685A6410
:1025800000E003E07B685B6C002BE6DC7B684FF0CF
:10259000FF325A6400F06EF90837BD4680BD00BFB7
:1025A00080B584B000AF786000F054F97B689B6B15
:1025B000002B02D10123FB6001E00023FB6000F04F
:1025C00059F9FB6818461037BD4680BD80B584B008
:1025D00000AF786000F03EF97B689A6B7B68DB6B3C
:1025E0009A4202D10123FB6001E00023FB6000F06E
:1025F00041F9FB6818461037BD4680BD80B485B0F0
:1026000000AF786039600023FB6014E00E4BFA687D
:1026100053F83230002B0BD10B4BFA68396843F872
:102620003210094AFB68DB0013447A685A6005E0FF
:10263000FB680133FB60FB68072BE7D91437BD4605
:102640005DF8047B704700BFC031012080B584B0C5
:1026500000AF786039607B68FB6000F0FBF8FB68D6
:102660005B6CB3F1FF3F02D1FB6800225A64FB6848
:102670009B6CB3F1FF3F02D1FB6800229A6400F02B
:10268000F9F8FB689B6B002B05D1FB6824331846D7
:102690003968FEF74BFFF868FFF736FF1037BD4685
:1026A00080BD00BF80B485B000AFF860B9607A60CB
:1026B000FB68043BFB60FB684FF080721A60FB68AC
:1026C000043BFB60BA68FB681A60FB68043BFB6074
:1026D0000C4AFB681A60FB68143BFB607A68FB6875
:1026E0001A60FB68043BFB60FB686FF002021A6033
:1026F000FB68203BFB60FB6818461437BD465DF85D
:10270000047B70470927000880B500AF054B1B68A4
:10271000B3F1FF3F02D000F0C5F8FEE700F0C2F8C9
:10272000FEE700BF48040020064B19680868B0E8BF
:10273000F04F80F30988BFF36F8F4FF0000080F3F4
:1027400011887047A804002005480068006880F3DD
:10275000088862B6BFF34F8FBFF36F8F00DF00BFF3
:1027600008ED00E080B584B000AF2C4BFB60FB6847
:102770001B78DBB2BB60FB68FF221A70FB681B781A
:10278000DBB2FB71FB79DBB203F05003DAB2244B0E
:102790001A70244B07221A6009E0224B1B685A1E4C
:1027A000204B1A60FB79DBB25B00DBB2FB71FB797B
:1027B000DBB2DBB25BB2002BEFDB1A4B1B681A02F9
:1027C000184B1A60174B1B6803F4E062154B1A6034
:1027D000BB68DAB2FB681A70134B134A126842F4F2
:1027E00070021A60104B104A126842F070421A6070
:1027F00000F0A6F80D4B00221A6000F0BBF80C4B5D
:102800000B4A126842F040421A60FFF79DFFFFF743
:102810007BFF002318461037BD4680BD00E400E072
:10282000A4050020A805002020ED00E048040020B9
:1028300034EF00E080B400AF054B4FF080521A60D7
:10284000BFF34F8FBFF36F8FBD465DF8047B7047BA
:1028500004ED00E080B500AF00F024F8044B1B68E5
:102860005A1C034B1A60BFF34F8FBFF36F8F80BDAD
:102870004804002080B500AF094B1B68002B02D133
:1028800000F010F8FEE7064B1B685A1E044B1A6056
:10289000034B1B68002B02D1002000F00DF880BD17
:1028A00048040020EFF311804FF0500181F31188AC
:1028B00070470023184600BF80F31188704700BF9F
:1028C000EFF30980BFF36F8F124B1A681EF0100FE1
:1028D00008BF20ED108A20E9F04F10604DF8043D4C
:1028E0004FF0500080F31188FEF798FD4FF0000084
:1028F00080F3118808BC19680868B0E8F04F1EF032
:10290000100F08BFB0EC108A80F30988BFF36F8FF7
:10291000704700BFA804002080B500AFFFF7C2FFDA
:10292000FEF7C4FC0346002B03D0044B4FF080524B
:102930001A600020FFF7C0FF80BD00BF04ED00E07B
:1029400080B400AF074B084A1168084AA2FB010295
:102950009209013A1A60064B07221A60BD465DF8DB
:10296000047B704714E000E034040020D34D621073
:1029700010E000E0DFF80C00016841F47001016034
:102980007047000088ED00E080B582B000AFEFF343
:1029900005837B607B680F2B0CD90D4A7B68134441
:1029A0001B78FB700B4B1B78FA789A4202D2FFF728
:1029B00079FFFEE7084B1B6803F4E062074B1B68D6
:1029C0009A4202D9FFF76EFFFEE70837BD4680BD89
:1029D000F0E300E0A40500200CED00E0A8050020D5
:1029E00080B588B000AF786000237B61FEF7B8FB4C
:1029F0003D4B1B68002B04D100F0B8F83A4B012284
:102A00001A607B68002B0DD008237A6813447B6022
:102A10007B6803F00703002B04D07B6823F00703D7
:102A200008337B607B68002B56D07A682F4B9A4224
:102A300052D82F4BBB612E4B1B68FB6104E0FB6936
:102A4000BB61FB691B68FB61FB695A687B689A4242
:102A500003D2FB691B68002BF1D1FA69254B9A421E
:102A60003AD0BB691A68082313447B61FB691A6872
:102A7000BB691A60FB695A687B68D21A08235B003D
:102A80009A4222D9FA697B681344FB60FB695A6851
:102A90007B68D21AFB685A60FB697A685A60FB68E7
:102AA0005B68BB60124B3B6102E03B691B683B61AA
:102AB0003B691B685A68BB689A42F6D33B691A683F
:102AC000FB681A603B69FA681A600B4B1A68FB696D
:102AD0005B68D21A084B1A60FEF750FB7B691846F8
:102AE0002037BD4680BD00BFBC310120F72B01005F
:102AF000AC310120B43101204C04002080B586B0F7
:102B000000AF78607B683B617B68002B27D008238F
:102B10005B423A6913443B613B69FB60FEF720FB73
:102B2000FB685B68BB600F4B7B6102E07B691B68E5
:102B30007B617B691B685A68BB689A42F6D37B69E4
:102B40001A68FB681A607B69FA681A60FB685A6841
:102B5000054B1B681A44044B1A60FEF70FFB18372D
:102B6000BD4680BDAC3101204C04002080B483B050
:102B700000AF0E4B23F007037B600D4B7A681A60A1
:102B80000B4B00225A600B4B0B4A5A60094B002238
:102B90001A607B683B603B68074A5A603B68054A9D
:102BA0001A600C37BD465DF8047B7047B405002001
:102BB000AC310120B4310120F82B0100844641EAF8
:102BC000000313F003036DD1403A41D351F8043BA5
:102BD00040F8043B51F8043B40F8043B51F8043BF7
:102BE00040F8043B51F8043B40F8043B51F8043BE7
:102BF00040F8043B51F8043B40F8043B51F8043BD7
:102C000040F8043B51F8043B40F8043B51F8043BC6
:102C100040F8043B51F8043B40F8043B51F8043BB6
:102C200040F8043B51F8043B40F8043B51F8043BA6
:102C300040F8043B51F8043B40F8043B51F8043B96
:102C400040F8043B51F8043B40F8043B403ABDD205
:102C5000303211D351F8043B40F8043B51F8043BA7
:102C600040F8043B51F8043B40F8043B51F8043B66
:102C700040F8043B103AEDD20C3205D351F8043B36
:102C800040F8043B043AF9D2043208D0D2071CBF02
:102C900011F8013B00F8013B01D30B88038060462B
:102CA000704700BF082A13D38B078DD010F00303A1
:102CB0008AD0C3F10403D21ADB071CBF11F8013B11
:102CC00000F8013B80D331F8023B20F8023B7BE760
:102CD000043AD9D3013A11F8013B00F8013BF9D28B
:102CE0000B7803704B7843708B7883706046704725
:102CF000F0B4840743D0541E002A3ED0CDB2034620
:102D000003E0621E002C38D0144603F8015B9A07DA
:102D1000F7D1032C2AD9CDB245EA05250F2C45EA77
:102D2000054515D9A4F110073F0903F1100606EB7C
:102D300007161A46156055609560D5601032B2428C
:102D4000F8D104F00F040137032C03EB07130DD95E
:102D50001E462246043A032A46F8045BFAD8221F8C
:102D600022F003020432134404F003042CB1C9B26C
:102D70001C4403F8011BA342FBD1F0BC704714466E
:102D80000346C6E7466565646572000068656C6C5D
:102D90006F20776F726C64210000000062796520FB
:102DA0006279650025640D0A00000000546D7220F0
:102DB00053766300546D72510000000073746469AF
:102DC0006F2E633A20696E637265617365204D41B1
:102DD000585F535452494E475F53495A450A0D00B4
:082DE00049444C4500000000CD
:102DE80000000000000000000100000000000000DA
:102DF80000000000000000000000000000000000CB
:102E080000000000000000000000000000000000BA
:102E180000000000000000000000000000000000AA
:102E2800000000000000000000000000000000009A
:103208000000000000000000000000200000000096
:10321800FFFFFFFF007A030A000000000000000023
:103228000102030406070809AAAAAAAAF82B0100A2
:0400000508000000EF
:00000001FF
